{
  "_format": "hh-sol-artifact-1",
  "contractName": "ProjectEscrow",
  "sourceName": "contracts/ProjectEscrow.sol",
  "abi": [
    {
      "inputs": [
        {
          "internalType": "address",
          "name": "_platformAdmin",
          "type": "address"
        }
      ],
      "stateMutability": "nonpayable",
      "type": "constructor"
    },
    {
      "inputs": [
        {
          "internalType": "address",
          "name": "owner",
          "type": "address"
        }
      ],
      "name": "OwnableInvalidOwner",
      "type": "error"
    },
    {
      "inputs": [
        {
          "internalType": "address",
          "name": "account",
          "type": "address"
        }
      ],
      "name": "OwnableUnauthorizedAccount",
      "type": "error"
    },
    {
      "inputs": [],
      "name": "ReentrancyGuardReentrantCall",
      "type": "error"
    },
    {
      "anonymous": false,
      "inputs": [
        {
          "indexed": true,
          "internalType": "bytes32",
          "name": "projectId",
          "type": "bytes32"
        }
      ],
      "name": "DisputeRaised",
      "type": "event"
    },
    {
      "anonymous": false,
      "inputs": [
        {
          "indexed": true,
          "internalType": "bytes32",
          "name": "projectId",
          "type": "bytes32"
        },
        {
          "indexed": false,
          "internalType": "enum ProjectEscrow.DisputeOutcome",
          "name": "outcome",
          "type": "uint8"
        }
      ],
      "name": "DisputeResolved",
      "type": "event"
    },
    {
      "anonymous": false,
      "inputs": [
        {
          "indexed": true,
          "internalType": "bytes32",
          "name": "projectId",
          "type": "bytes32"
        },
        {
          "indexed": true,
          "internalType": "address",
          "name": "client",
          "type": "address"
        },
        {
          "indexed": true,
          "internalType": "address",
          "name": "freelancer",
          "type": "address"
        },
        {
          "indexed": false,
          "internalType": "uint256",
          "name": "totalAmount",
          "type": "uint256"
        }
      ],
      "name": "EscrowCreated",
      "type": "event"
    },
    {
      "anonymous": false,
      "inputs": [
        {
          "indexed": true,
          "internalType": "bytes32",
          "name": "projectId",
          "type": "bytes32"
        },
        {
          "indexed": false,
          "internalType": "uint256",
          "name": "amount",
          "type": "uint256"
        }
      ],
      "name": "EscrowFunded",
      "type": "event"
    },
    {
      "anonymous": false,
      "inputs": [
        {
          "indexed": true,
          "internalType": "bytes32",
          "name": "projectId",
          "type": "bytes32"
        },
        {
          "indexed": true,
          "internalType": "address",
          "name": "to",
          "type": "address"
        },
        {
          "indexed": false,
          "internalType": "uint256",
          "name": "amount",
          "type": "uint256"
        }
      ],
      "name": "FundsReleased",
      "type": "event"
    },
    {
      "anonymous": false,
      "inputs": [
        {
          "indexed": true,
          "internalType": "bytes32",
          "name": "projectId",
          "type": "bytes32"
        },
        {
          "indexed": false,
          "internalType": "uint256",
          "name": "milestoneIndex",
          "type": "uint256"
        },
        {
          "indexed": false,
          "internalType": "uint256",
          "name": "amount",
          "type": "uint256"
        }
      ],
      "name": "MilestoneApproved",
      "type": "event"
    },
    {
      "anonymous": false,
      "inputs": [
        {
          "indexed": true,
          "internalType": "address",
          "name": "previousOwner",
          "type": "address"
        },
        {
          "indexed": true,
          "internalType": "address",
          "name": "newOwner",
          "type": "address"
        }
      ],
      "name": "OwnershipTransferred",
      "type": "event"
    },
    {
      "inputs": [
        {
          "internalType": "bytes32",
          "name": "projectId",
          "type": "bytes32"
        },
        {
          "internalType": "uint256",
          "name": "milestoneIndex",
          "type": "uint256"
        }
      ],
      "name": "approveMilestone",
      "outputs": [],
      "stateMutability": "nonpayable",
      "type": "function"
    },
    {
      "inputs": [
        {
          "internalType": "bytes32",
          "name": "projectId",
          "type": "bytes32"
        },
        {
          "internalType": "address",
          "name": "freelancer",
          "type": "address"
        },
        {
          "internalType": "uint256[]",
          "name": "milestoneAmounts",
          "type": "uint256[]"
        }
      ],
      "name": "createEscrow",
      "outputs": [],
      "stateMutability": "payable",
      "type": "function"
    },
    {
      "inputs": [
        {
          "internalType": "bytes32",
          "name": "",
          "type": "bytes32"
        }
      ],
      "name": "escrows",
      "outputs": [
        {
          "internalType": "address",
          "name": "client",
          "type": "address"
        },
        {
          "internalType": "address",
          "name": "freelancer",
          "type": "address"
        },
        {
          "internalType": "uint256",
          "name": "totalAmount",
          "type": "uint256"
        },
        {
          "internalType": "uint256",
          "name": "releasedAmount",
          "type": "uint256"
        },
        {
          "internalType": "enum ProjectEscrow.EscrowStatus",
          "name": "status",
          "type": "uint8"
        },
        {
          "internalType": "bool",
          "name": "inDispute",
          "type": "bool"
        },
        {
          "internalType": "enum ProjectEscrow.DisputeOutcome",
          "name": "disputeOutcome",
          "type": "uint8"
        },
        {
          "internalType": "uint256",
          "name": "createdAt",
          "type": "uint256"
        }
      ],
      "stateMutability": "view",
      "type": "function"
    },
    {
      "inputs": [
        {
          "internalType": "bytes32",
          "name": "projectId",
          "type": "bytes32"
        }
      ],
      "name": "getEscrow",
      "outputs": [
        {
          "internalType": "address",
          "name": "client",
          "type": "address"
        },
        {
          "internalType": "address",
          "name": "freelancer",
          "type": "address"
        },
        {
          "internalType": "uint256",
          "name": "totalAmount",
          "type": "uint256"
        },
        {
          "internalType": "uint256",
          "name": "releasedAmount",
          "type": "uint256"
        },
        {
          "internalType": "enum ProjectEscrow.EscrowStatus",
          "name": "status",
          "type": "uint8"
        },
        {
          "internalType": "bool",
          "name": "inDispute",
          "type": "bool"
        }
      ],
      "stateMutability": "view",
      "type": "function"
    },
    {
      "inputs": [
        {
          "internalType": "bytes32",
          "name": "projectId",
          "type": "bytes32"
        }
      ],
      "name": "getMilestones",
      "outputs": [
        {
          "components": [
            {
              "internalType": "uint256",
              "name": "amount",
              "type": "uint256"
            },
            {
              "internalType": "bool",
              "name": "approved",
              "type": "bool"
            },
            {
              "internalType": "uint256",
              "name": "approvedAt",
              "type": "uint256"
            }
          ],
          "internalType": "struct ProjectEscrow.Milestone[]",
          "name": "",
          "type": "tuple[]"
        }
      ],
      "stateMutability": "view",
      "type": "function"
    },
    {
      "inputs": [
        {
          "internalType": "bytes32",
          "name": "",
          "type": "bytes32"
        },
        {
          "internalType": "uint256",
          "name": "",
          "type": "uint256"
        }
      ],
      "name": "milestones",
      "outputs": [
        {
          "internalType": "uint256",
          "name": "amount",
          "type": "uint256"
        },
        {
          "internalType": "bool",
          "name": "approved",
          "type": "bool"
        },
        {
          "internalType": "uint256",
          "name": "approvedAt",
          "type": "uint256"
        }
      ],
      "stateMutability": "view",
      "type": "function"
    },
    {
      "inputs": [],
      "name": "owner",
      "outputs": [
        {
          "internalType": "address",
          "name": "",
          "type": "address"
        }
      ],
      "stateMutability": "view",
      "type": "function"
    },
    {
      "inputs": [],
      "name": "platformAdmin",
      "outputs": [
        {
          "internalType": "address",
          "name": "",
          "type": "address"
        }
      ],
      "stateMutability": "view",
      "type": "function"
    },
    {
      "inputs": [
        {
          "internalType": "bytes32",
          "name": "projectId",
          "type": "bytes32"
        }
      ],
      "name": "raiseDispute",
      "outputs": [],
      "stateMutability": "nonpayable",
      "type": "function"
    },
    {
      "inputs": [],
      "name": "renounceOwnership",
      "outputs": [],
      "stateMutability": "nonpayable",
      "type": "function"
    },
    {
      "inputs": [
        {
          "internalType": "bytes32",
          "name": "projectId",
          "type": "bytes32"
        },
        {
          "internalType": "enum ProjectEscrow.DisputeOutcome",
          "name": "outcome",
          "type": "uint8"
        },
        {
          "internalType": "uint256",
          "name": "freelancerPercentage",
          "type": "uint256"
        }
      ],
      "name": "resolveDispute",
      "outputs": [],
      "stateMutability": "nonpayable",
      "type": "function"
    },
    {
      "inputs": [
        {
          "internalType": "address",
          "name": "newOwner",
          "type": "address"
        }
      ],
      "name": "transferOwnership",
      "outputs": [],
      "stateMutability": "nonpayable",
      "type": "function"
    },
    {
      "inputs": [
        {
          "internalType": "address",
          "name": "newAdmin",
          "type": "address"
        }
      ],
      "name": "updatePlatformAdmin",
      "outputs": [],
      "stateMutability": "nonpayable",
      "type": "function"
    },
    {
      "inputs": [],
      "name": "version",
      "outputs": [
        {
          "internalType": "string",
          "name": "",
          "type": "string"
        }
      ],
      "stateMutability": "pure",
      "type": "function"
    }
  ],
  "bytecode": "0x60806040523480156200001157600080fd5b5060405162001c9038038062001c9083398101604081905262000034916200013d565b600160005533806200006157604051631e4fbdf760e01b8152600060048201526024015b60405180910390fd5b6200006c81620000eb565b506001600160a01b038116620000c55760405162461bcd60e51b815260206004820152601560248201527f496e76616c69642061646d696e20616464726573730000000000000000000000604482015260640162000058565b600480546001600160a01b0319166001600160a01b03929092169190911790556200016f565b600180546001600160a01b038381166001600160a01b0319831681179093556040519116919082907f8be0079c531659141344cd1fd0a4f28419497f9722a3daafe3b4186f6b6457e090600090a35050565b6000602082840312156200015057600080fd5b81516001600160a01b03811681146200016857600080fd5b9392505050565b611b11806200017f6000396000f3fe6080604052600436106100dd5760003560e01c8063b6bab8231161007f578063ea4a873c11610059578063ea4a873c146102c0578063f023b811146102ed578063f2fde38b1461031f578063ff258f331461033f57600080fd5b8063b6bab8231461026d578063cdcd7fb514610280578063e14f5b7d146102a057600080fd5b8063669c8cba116100bb578063669c8cba146101cb578063715018a6146102065780638da5cb5b1461021b578063a9f03b831461024d57600080fd5b80632b7a1f96146100e25780632d83549c1461010457806354fd4d5014610197575b600080fd5b3480156100ee57600080fd5b506101026100fd3660046116aa565b61035f565b005b34801561011057600080fd5b5061017a61011f3660046116cc565b60026020819052600091825260409091208054600182015492820154600383015460048401546005909401546001600160a01b0393841695909316939192909160ff8082169261010083048216926201000090049091169088565b60405161018e98979695949392919061171f565b60405180910390f35b3480156101a357600080fd5b5060408051808201825260058152640312e302e360dc1b6020820152905161018e919061177b565b3480156101d757600080fd5b506101eb6101e63660046116aa565b6106df565b6040805193845291151560208401529082015260600161018e565b34801561021257600080fd5b50610102610725565b34801561022757600080fd5b506001546001600160a01b03165b6040516001600160a01b03909116815260200161018e565b34801561025957600080fd5b506101026102683660046117e5565b610739565b61010261027b36600461181d565b6107ab565b34801561028c57600080fd5b50600454610235906001600160a01b031681565b3480156102ac57600080fd5b506101026102bb3660046116cc565b610c1d565b3480156102cc57600080fd5b506102e06102db3660046116cc565b610da9565b60405161018e91906118f7565b3480156102f957600080fd5b5061030d6103083660046116cc565b610e3a565b60405161018e96959493929190611952565b34801561032b57600080fd5b5061010261033a3660046117e5565b610f48565b34801561034b57600080fd5b5061010261035a366004611998565b610f86565b610367611601565b60008281526002602052604090205482906001600160a01b03166103a65760405162461bcd60e51b815260040161039d906119d4565b60405180910390fd5b600083815260026020526040902080546001600160a01b031633146103fb5760405162461bcd60e51b815260206004820152600b60248201526a13db9b1e4818db1a595b9d60aa1b604482015260640161039d565b600160048083015460ff1690811115610416576104166116e5565b146104545760405162461bcd60e51b815260206004820152600e60248201526d496e76616c69642073746174757360901b604482015260640161039d565b6004810154610100900460ff16156104a05760405162461bcd60e51b815260206004820152600f60248201526e115cd8dc9bddc8191a5cdc1d5d1959608a1b604482015260640161039d565b60008481526003602052604090205483106104f15760405162461bcd60e51b8152602060048201526011602482015270496e76616c6964206d696c6573746f6e6560781b604482015260640161039d565b600084815260036020526040812080548590811061051157610511611a03565b60009182526020909120600390910201600181015490915060ff161561056c5760405162461bcd60e51b815260206004820152601060248201526f105b1c9958591e48185c1c1c9bdd995960821b604482015260640161039d565b6001818101805460ff191690911790554260028201558054600383018054600090610598908490611a2f565b9091555050600182015481546040516000926001600160a01b031691908381818185875af1925050503d80600081146105ed576040519150601f19603f3d011682016040523d82523d6000602084013e6105f2565b606091505b50509050806106355760405162461bcd60e51b815260206004820152600f60248201526e151c985b9cd9995c8819985a5b1959608a1b604482015260640161039d565b815460405187917f0f57edbe6b21333c1a5ce476e82107e65ebdc53e0b7fb7c35fd0370de4a4e09f9161067091898252602082015260400190565b60405180910390a2600183015482546040519081526001600160a01b03909116908790600080516020611abc8339815191529060200160405180910390a382600201548360030154036106cd5760048301805460ff191660021790555b505050506106db6001600055565b5050565b600360205281600052604060002081815481106106fb57600080fd5b600091825260209091206003909102018054600182015460029092015490935060ff909116915083565b61072d61162b565b6107376000611658565b565b61074161162b565b6001600160a01b0381166107895760405162461bcd60e51b815260206004820152600f60248201526e496e76616c6964206164647265737360881b604482015260640161039d565b600480546001600160a01b0319166001600160a01b0392909216919091179055565b6000838152600260205260409020546001600160a01b0316156108085760405162461bcd60e51b8152602060048201526015602482015274457363726f7720616c72656164792065786973747360581b604482015260640161039d565b6001600160a01b0382166108535760405162461bcd60e51b815260206004820152601260248201527124b73b30b634b210333932b2b630b731b2b960711b604482015260640161039d565b60008151116108965760405162461bcd60e51b815260206004820152600f60248201526e4e656564206d696c6573746f6e657360881b604482015260640161039d565b336001600160a01b038316036108e65760405162461bcd60e51b815260206004820152601560248201527421b0b73737ba1032b9b1b937bb903a379039b2b63360591b604482015260640161039d565b6000805b8251811015610a1d57600083828151811061090757610907611a03565b60200260200101511161095c5760405162461bcd60e51b815260206004820152601860248201527f496e76616c6964206d696c6573746f6e6520616d6f756e740000000000000000604482015260640161039d565b82818151811061096e5761096e611a03565b6020026020010151826109819190611a2f565b91506003600086815260200190815260200160002060405180606001604052808584815181106109b3576109b3611a03565b60209081029190910181015182526000828201819052604092830181905284546001808201875595825290829020845160039092020190815590830151938101805460ff191694151594909417909355015160029091015580610a1581611a48565b9150506108ea565b50803414610a655760405162461bcd60e51b8152602060048201526015602482015274125b98dbdc9c9958dd08185b5bdd5b9d081cd95b9d605a1b604482015260640161039d565b60408051610100810182523381526001600160a01b038516602082015290810182905260006060820152608081016001815260006020820181905260409091019081524260209182015260008681526002808352604091829020845181546001600160a01b039182166001600160a01b03199182161783559486015160018084018054929093169190961617905591840151908201556060830151600382015560808301516004808301805493949293909260ff19909116918490811115610b2f57610b2f6116e5565b021790555060a08201516004820180549115156101000261ff001983168117825560c08501519262ff00001990911662ffff00199091161762010000836003811115610b7d57610b7d6116e5565b021790555060e08201518160050155905050826001600160a01b0316336001600160a01b0316857f0dd968c277d9dc6b36b6ec2b638324c3d937882c64ca109440bc050ebf26cb0784604051610bd591815260200190565b60405180910390a4837f08bc5e5162ba9d1a558b2d254f4739d54c8d7051230419652b328670bd68fc3782604051610c0f91815260200190565b60405180910390a250505050565b60008181526002602052604090205481906001600160a01b0316610c535760405162461bcd60e51b815260040161039d906119d4565b600082815260026020526040902080546001600160a01b0316331480610c85575060018101546001600160a01b031633145b610cc25760405162461bcd60e51b815260206004820152600e60248201526d139bdd08185d5d1a1bdc9a5e995960921b604482015260640161039d565b600160048083015460ff1690811115610cdd57610cdd6116e5565b14610d1b5760405162461bcd60e51b815260206004820152600e60248201526d496e76616c69642073746174757360901b604482015260640161039d565b6004810154610100900460ff1615610d685760405162461bcd60e51b815260206004820152601060248201526f105b1c9958591e48191a5cdc1d5d195960821b604482015260640161039d565b60048101805461ffff191661010417905560405183907f384768a28d40bb1ee9c7940dfdd5b551453a3e1c5cbd958a695d82dc8e5c326a90600090a2505050565b606060036000838152602001908152602001600020805480602002602001604051908101604052809291908181526020016000905b82821015610e2f57600084815260209081902060408051606081018252600386029092018054835260018082015460ff16151584860152600290910154918301919091529083529092019101610dde565b505050509050919050565b600081815260026020818152604080842081516101008101835281546001600160a01b03908116825260018301541693810193909352928301549082015260038201546060820152600480830154849384938493849384938493929091608084019160ff90911690811115610eb157610eb16116e5565b6004811115610ec257610ec26116e5565b8152600482015460ff610100820481161515602084015260409092019162010000909104166003811115610ef857610ef86116e5565b6003811115610f0957610f096116e5565b81526005919091015460209182015281519082015160408301516060840151608085015160a090950151939d929c50909a509850919650945092505050565b610f5061162b565b6001600160a01b038116610f7a57604051631e4fbdf760e01b81526000600482015260240161039d565b610f8381611658565b50565b6004546001600160a01b03163314610fd65760405162461bcd60e51b815260206004820152601360248201527227b7363c90383630ba3337b9369030b236b4b760691b604482015260640161039d565b610fde611601565b60008381526002602052604090205483906001600160a01b03166110145760405162461bcd60e51b815260040161039d906119d4565b60008481526002602052604090206004810154610100900460ff1661106f5760405162461bcd60e51b81526020600482015260116024820152704e6f20616374697665206469737075746560781b604482015260640161039d565b6000846003811115611083576110836116e5565b036110c25760405162461bcd60e51b815260206004820152600f60248201526e496e76616c6964206f7574636f6d6560881b604482015260640161039d565b6000816003015482600201546110d89190611a61565b9050600081116111235760405162461bcd60e51b81526020600482015260166024820152754e6f2066756e647320746f206469737472696275746560501b604482015260640161039d565b60048201805461ff00198116825586919062ffff00191662010000836003811115611150576111506116e5565b02179055506001856003811115611169576111696116e5565b03611260576002820154600383015560018201546040516000916001600160a01b03169083908381818185875af1925050503d80600081146111c7576040519150601f19603f3d011682016040523d82523d6000602084013e6111cc565b606091505b505090508061120f5760405162461bcd60e51b815260206004820152600f60248201526e151c985b9cd9995c8819985a5b1959608a1b604482015260640161039d565b60018301546040518381526001600160a01b03909116908890600080516020611abc8339815191529060200160405180910390a36004830180546002919060ff19166001835b0217905550506115b7565b6002856003811115611274576112746116e5565b036113525781546040516000916001600160a01b03169083908381818185875af1925050503d80600081146112c5576040519150601f19603f3d011682016040523d82523d6000602084013e6112ca565b606091505b505090508061130b5760405162461bcd60e51b815260206004820152600d60248201526c1499599d5b990819985a5b1959609a1b604482015260640161039d565b82546040518381526001600160a01b03909116908890600080516020611abc8339815191529060200160405180910390a36004830180546003919060ff1916600183611255565b6003856003811115611366576113666116e5565b036115b75760648411156113b15760405162461bcd60e51b8152602060048201526012602482015271496e76616c69642070657263656e7461676560701b604482015260640161039d565b600060646113bf8684611a74565b6113c99190611a8b565b905060006113d78284611a61565b905081156114ba5760018401546040516000916001600160a01b03169084908381818185875af1925050503d806000811461142e576040519150601f19603f3d011682016040523d82523d6000602084013e611433565b606091505b50509050806114845760405162461bcd60e51b815260206004820152601a60248201527f467265656c616e636572207472616e73666572206661696c6564000000000000604482015260640161039d565b60018501546040518481526001600160a01b03909116908a90600080516020611abc8339815191529060200160405180910390a3505b801561158c5783546040516000916001600160a01b03169083908381818185875af1925050503d806000811461150c576040519150601f19603f3d011682016040523d82523d6000602084013e611511565b606091505b50509050806115595760405162461bcd60e51b815260206004820152601460248201527310db1a595b9d081c99599d5b990819985a5b195960621b604482015260640161039d565b84546040518381526001600160a01b03909116908a90600080516020611abc8339815191529060200160405180910390a3505b818460030160008282546115a09190611a2f565b9091555050505060048201805460ff191660021790555b857f0a168b993fc74606982b54f62facd64a9642fc31797b78c5b503b4116f3c8388866040516115e79190611aad565b60405180910390a25050506115fc6001600055565b505050565b60026000540361162457604051633ee5aeb560e01b815260040160405180910390fd5b6002600055565b6001546001600160a01b031633146107375760405163118cdaa760e01b815233600482015260240161039d565b600180546001600160a01b038381166001600160a01b0319831681179093556040519116919082907f8be0079c531659141344cd1fd0a4f28419497f9722a3daafe3b4186f6b6457e090600090a35050565b600080604083850312156116bd57600080fd5b50508035926020909101359150565b6000602082840312156116de57600080fd5b5035919050565b634e487b7160e01b600052602160045260246000fd5b6005811061170b5761170b6116e5565b9052565b6004811061170b5761170b6116e5565b6001600160a01b038981168252881660208201526040810187905260608101869052610100810161175360808301876116fb565b84151560a083015261176860c083018561170f565b8260e08301529998505050505050505050565b600060208083528351808285015260005b818110156117a85785810183015185820160400152820161178c565b506000604082860101526040601f19601f8301168501019250505092915050565b80356001600160a01b03811681146117e057600080fd5b919050565b6000602082840312156117f757600080fd5b611800826117c9565b9392505050565b634e487b7160e01b600052604160045260246000fd5b60008060006060848603121561183257600080fd5b8335925060206118438186016117c9565b9250604085013567ffffffffffffffff8082111561186057600080fd5b818701915087601f83011261187457600080fd5b81358181111561188657611886611807565b8060051b604051601f19603f830116810181811085821117156118ab576118ab611807565b60405291825284820192508381018501918a8311156118c957600080fd5b938501935b828510156118e7578435845293850193928501926118ce565b8096505050505050509250925092565b602080825282518282018190526000919060409081850190868401855b8281101561194557815180518552868101511515878601528501518585015260609093019290850190600101611914565b5091979650505050505050565b6001600160a01b03878116825286166020820152604081018590526060810184905260c0810161198560808301856116fb565b82151560a0830152979650505050505050565b6000806000606084860312156119ad57600080fd5b833592506020840135600481106119c357600080fd5b929592945050506040919091013590565b602080825260159082015274115cd8dc9bddc8191bd95cc81b9bdd08195e1a5cdd605a1b604082015260600190565b634e487b7160e01b600052603260045260246000fd5b634e487b7160e01b600052601160045260246000fd5b80820180821115611a4257611a42611a19565b92915050565b600060018201611a5a57611a5a611a19565b5060010190565b81810381811115611a4257611a42611a19565b8082028115828204841417611a4257611a42611a19565b600082611aa857634e487b7160e01b600052601260045260246000fd5b500490565b60208101611a42828461170f56fe75d86e5bfa1175e2dc677f3abe3aebba3069f2db6ae492f1734d4b4bc65f61c1a26469706673582212204b4b49b5f711a2677acbcf7837e032944e85bd75967b8cc6045b02a966d05ebf64736f6c63430008140033",
  "linkReferences": {},
  "deployedLinkReferences": {}
}